:0400000095EF39F04F
:1072E600516E51C0C9FF9EA6FED79E961200586EDB
:1072F6005850D8B402D0818801D0819881945750D3
:1073060073EC39F0818412005A6E5A508009576E18
:10731600000E7AEC39F059504009576E000E7AEC9F
:1073260039F0120000EE60F0940EEE6AE806FDE118
:1073360000EE01F0500EEE6AE806FDE1000EF86E72
:10734600000132EF3AF051505302F3CF55F0F4CF2B
:1073560056F051505402F350562652505302F350F1
:10736600562655C051F056C052F0120051C055F085
:1073760052C056F053C057F054C058F055505610EE
:1073860057105810D8B412005506000E565A575AC0
:10739600585AF4D7000E516E000E526E020EBFEC14
:1073A6003BF0010E516E000E526E020EBFEC3BF02A
:1073B600020E516E000E526E020EBFEC3BF0120032
:1073C600000E516E000E526E000E536E000E546E7D
:1073D600545053100DE1B80E515C0B0E5258D8B0F4
:1073E6001200010E5126000E522253225422F0D7CB
:1073F6001200516E07D0000EC66E0ED0C6800CD09D
:10740600C6820AD05150000AD8B4F5D7010AD8B4BA
:10741600F5D7030AD8B4F4D7C68A9E96000EC26E74
:107426000F0EC16E1200000E5C6E000E5B6E000E3B
:107436005C6E000E5B6EF80E5B5C010E5C58D8B09D
:1074460008D0000E576E010E7AEC39F05B4A5C2AC2
:10745600F2D7000E596E000E87EC39F01200000EBE
:107466005E6EFC0E536E7F0E546E6FEC3AF0D2ECED
:107476003AF016EC3AF0CDEC39F06F0E5F6E5F50D5
:1074860093EC3AF0E80E516E030E526E000E536EF8
:10749600000E546EB9EC39F0F2D7526E9392938087
:1074A600949EC78CC79004D0C6980ED0C6880CD0C0
:1074B6005250000AD8B4F8D7010AD8B4F7D704D086
:1074C600C79C1200C78C12005150000AD8B4F8D7D6
:1074D600010AD8A41200F6D7010E5324556E000EE9
:1074E6005420566E55C0F6FF56C0F7FF0800F5CF7C
:1074F60051F053C0F6FF54C0F7FF0800F55050ECAA
:107506003AF0020E5324556E000E5420566E55C0A6
:10751600F6FF56C0F7FF0800F550FCEC39F01200F4
:107526005B6E000E5D6E000E5C6E000E576E010EF9
:107536007AEC39F0000E5D6E000E5C6E5D5029E14E
:10754600050E5C5CD8B025D0E00E5B24516E526A05
:10755600FF0E5222000E546E050E536EA6EC39F045
:10756600DB0E596E780E5A6E5150592652505A22D9
:107576005C5059265D505A2259C0F6FF5AC0F7FF93
:107586000800F5CF57F0010E7AEC39F05C4A5D2A17
:10759600D5D7000E576E010E7AEC39F01200040EA4
:1075A600516E010E526E010EBFEC3BF0030E516E92
:1075B600010E526E010EBFEC3BF0020E516E010E33
:1075C600526E010EBFEC3BF0030E516E010E66ECDF
:1075D6003BF0E3EC39F0030E516E010E12EC3BF07A
:1075E600210E576E000E7AEC39F0BF0E576E000E64
:1075F6007AEC39F0040E576E000E7AEC39F0140E60
:10760600576E000E7AEC39F0200E576E000E7AECAB
:1076160039F00D0E576E000E7AEC39F01200546EEA
:1076260041D051C052F0010E536E522A02D0D8906A
:107636005336522EFCD753508012120051C052F0CE
:10764600010E536E522A02D0D8905336522EFCD7D2
:1076560053508112120051C052F0010E536E522A3D
:1076660002D0D8905336522EFCD7535082121200B5
:1076760051C052F0010E536E522A02D0D8905336A2
:10768600522EFCD753508312120051C052F0010EF5
:10769600536E522A02D0D8905336522EFCD75350EE
:1076A600841212005450000AD8B4BBD7010AD8B4C9
:1076B600C5D7030AD8B4CFD7010AD8B4D9D7070A91
:1076C600D8A41200E2D7546E46D051C052F0010E33
:1076D600536E522A02D0D8905336522EFCD75350AE
:1076E600FF0A8016120051C052F0010E536E522A44
:1076F60002D0D8905336522EFCD75350FF0A81162B
:10770600120051C052F0010E536E522A02D0D89088
:107716005336522EFCD75350FF0A8216120051C020
:1077260052F0010E536E522A02D0D8905336522E82
:10773600FCD75350FF0A8316120051C052F0010EB7
:10774600536E522A02D0D8905336522EFCD753503D
:10775600FF0A841612005450000AD8B4B6D7010A9C
:10776600D8B4C1D7030AD8B4CCD7010AD8B4D7D76E
:10777600070AD8A41200E1D7556EA4D051C053F021
:10778600010E546E532A02D0D8905436532EFCD78D
:1077960054509212120051C053F0010E546E532AE7
:1077A60002D0D8905436532EFCD754509312120060
:1077B60051C053F0010E546E532A02D0D89054365D
:1077C600532EFCD754509412120051C053F0010EA0
:1077D600546E532A02D0D8905436532EFCD75450A8
:1077E6009512120051C053F0010E546E532A02D066
:1077F600D8905436532EFCD754509612120055503A
:10780600000AD8B4BBD7010AD8B4C5D7030AD8B47E
:10781600CFD7010AD8B4D9D7070AD8A41200E2D71D
:1078260051C053F0000E546E532A02D0D8905436ED
:10783600532EFCD754509216120051C053F0000E2E
:10784600546E532A02D0D8905436532EFCD7545037
:107856009316120051C053F0000E546E532A02D0F4
:10786600D8905436532EFCD754509416120051C05B
:1078760053F0000E546E532A02D0D8905436532E2D
:10788600FCD754509516120051C053F0000E546E9A
:10789600532A02D0D8905436532EFCD754509616FD
:1078A60012005550000AD8B4BBD7010AD8B4C5D7C0
:1078B600030AD8B4CFD7010AD8B4D9D7070AD8A4AF
:1078C6001200E2D75250000AD8B499D7010AD8A4B8
:1078D6001200E7D700000000000000005F00000073
:1078E60007000700147F147F14242A7F2A1223130B
:1078F60008646236495522500005030000001C2228
:1079060041000041221C0014083E081408083E08E5
:1079160008005030000008080808080060600000F1
:1079260020100804023E5149453E00427F40004275
:10793600615149462141454B311814127F102745A4
:107946004545393C4A4949300171090503364949DB
:107956004936064949291E003636000000563600CB
:1079660000081422410014141414140041221408AF
:107976000201510906324979413E7E1111117E7F7D
:10798600494949363E414141227F4141221C7F49B6
:107996004949417F090909013E4149497A7F080859
:1079A600087F00417F41002040413F017F081422AB
:1079B600417F404040407F020C027F7F0408107FD9
:1079C6003E4141413E7F090909063E4151215E7F04
:1079D60009192946464949493101017F01013F40BC
:1079E60040403F1F2040201F3F4038403F6314085F
:1079F600146307087008076151494543007F4141F8
:107A06000002040810200041417F00040201020424
:107A16004040404040000102040020545454787F06
:107A2600484444383844444420384444487F385411
:107A3600545418087E0901020C5252523E7F080423
:107A4600047800447D40002040443D007F102844D7
:107A56000000417F40007C041804787C0804047808
:107A660038444444387C14141408081414187C7CD4
:107A7600080404084854545420043F4440203C4021
:107A860040207C1C2040201C3C4030403C442810B8
:107A960028440C5050503C4464544C440008364131
:107AA6000000007F0000004136080010080810089A
:107AB6007846414678000000000000000000000003
:107AC60000000000000000000000000000000000B0
:107AD60000000000000000000000000000000000A0
:107AE6000000000000000000000000000000000090
:107AF600000000000000000000546F74616C204616
:107B06006F727746756E6420453A200000546F7494
:107B1600616C20466F72772052656163743A20006B
:107B260000546F74616C2052657646756E6420450C
:107B36003A200000546F74616C2056656341707082
:107B460020456E3A200000546F74616C20417269C2
:107B560041707020456E3A200000546F74616C20AD
:107B66005265762052656163743A200000546F7442
:107B7600616C20466F7277204163743A2000005092
:107B86004320466F727746756E6420453A200000A2
:107B9600504220466F727746756E6420453A200043
:107BA60000504120466F727746756E6420453A2034
:107BB6000000504320466F72772052656163743A25
:107BC600200000504220466F727720526561637430
:107BD6003A200000504120466F727720526561635B
:107BE600743A200000546F74616C2052657620410F
:107BF60063743A200000566F6C74616765204375A4
:107C06007272656E7400004170706172656E7420E8
:107C1600506F776572000000416374697665205283
:107C2600656163746976650000546F74616C204603
:107C36006F727748453A20000050432052657646D9
:107C4600756E6420453A2000005042205265764603
:107C5600756E6420453A20000050412052657646F4
:107C6600756E6420453A2000005043205265762008
:107C760052656163743A20000050422052657620B6
:107C860052656163743A20000050412052657620A7
:107C960052656163743A200000546F74616C204130
:107CA60050506F773A200000546F74616C20526513
:107CB6007648453A200000504320466F72772041AF
:107CC60063743A200000504220466F727720416369
:107CD600743A200000504120466F72772041637449
:107CE6003A200000546F74616C2048506F773A2038
:107CF6000000546F74616C2046506F773A20000084
:107D0600546F74616C2052506F773A200000546FA4
:107D160074616C2041506F773A2000005043205226
:107D26006576204163743A20000050422052657601
:107D3600204163743A20000050412052657620416C
:107D460063743A2000004E2053616D43524D533AFE
:107D56002000004E2043616C43524D533A200000F0
:107D6600504320466F727748453A20000050422023
:107D7600466F727748453A200000504120466F72A0
:107D86007748453A2000004D6561737572656D65EB
:107D96006E740000546872656520506861736500F2
:107DA60000504320635448444E3A2000005042207D
:107DB600635448444E3A20000050412063544844DE
:107DC6004E3A200000504320765448444E3A200054
:107DD60000504220765448444E3A2000005041203C
:107DE600765448444E3A200000546F74616C20501B
:107DF600463A2000005043204150506F773A200009
:107E0600005042204150506F773A200000504120E8
:107E16004150506F773A2000005043205265764813
:107E2600453A20000050422052657648453A2000E7
:107E36000050412052657648453A20000046756E4E
:107E460064616D656E74616C0050432056706841C4
:107E56003A200000504220567068413A20000050F7
:107E66004120567068413A20000050432070684116
:107E76003A200000005042207068413A200000007D
:107E86005041207068413A20000000504320435280
:107E96004D533A20000050422043524D533A2000A1
:107EA6000050412043524D533A2000005043205683
:107EB600524D533A20000050422056524D533A201C
:107EC600000050412056524D533A200000504320A6
:107ED60048506F773A20000050422048506F773A5A
:107EE60020000050412048506F773A200000504350
:107EF6002046506F773A20000050422046506F7758
:107F06003A20000050412046506F773A200000503A
:107F1600432052506F773A20000050422052506F53
:107F2600773A20000050412052506F773A200000E7
:107F360050432041506F773A200000504220415074
:107F46006F773A20000050412041506F773A200069
:107F5600005043204170703A20000050422041708A
:107F6600703A2000005041204170703A20000046CF
:107F760072657154656D7000004861726D6F6E694F
:107F860063000050432050463A20000050422050E3
:107F9600463A20000050412050463A2000005465E1
:107FA6006D703A200000467265713A200000466105
:107FB60063746F720000416E676C65000050686103
:107FC60073650000506F7765720000506F776572B9
:107FD6000000456E65726779004D656E7500005349
:107FE600656E640000524D5300000100024C000013
:0A7FF60045000052000001000200E7
:020000040020DA
:08000000FFFFFFFFFFFFFFFF00
:020000040030CA
:0E000000200C1F1EFF0185FF0FC00FE00F40F8
:00000001FF
