:0400000051EF00F0CC
:100008004D82FACF33F0FBCF34F0E9CF35F0EACFA9
:1000180036F0E1CF37F0E2CF38F0D9CF39F0DACF88
:100028003AF0F3CF3BF0F4CF3CF0F6CF3DF0F7CF0A
:100038003EF0F8CF3FF0F5CF40F04DC041F04EC054
:1000480042F04FC043F050C044F0F2B2F29244C0C4
:1000580050F043C04FF042C04EF041C04DF040C098
:10006800F5FF3FC0F8FF3EC0F7FF3DC0F6FF3CC0BC
:10007800F4FF3BC0F3FF3AC0DAFF39C0D9FF38C0FC
:10008800E2FF37C0E1FF36C0EAFF35C0E9FF34C000
:10009800FBFF33C0FAFF4D92110061EF02F0020E30
:1000A800456E010E466E010EC8EC00F0010E456E5D
:1000B800010E466E010EC8EC00F0010E456E010EF1
:1000C8007AEC01F0C1EC02F0010E456E010EB1ECC4
:1000D80001F0210E4B6E000E18EC03F0E80E456E91
:1000E800030E466E000E476E000E486EF1EC02F0ED
:1000F800C00E4B6E000E18EC03F0E80E456E030EB2
:10010800466E000E476E000E486EF1EC02F0070EC8
:100118004B6E000E18EC03F0E80E456E030E466EAB
:10012800000E476E000E486EF1EC02F0130E4B6E97
:10013800000E18EC03F0E80E456E030E466E000E36
:10014800476E000E486EF1EC02F0200E4B6E000E6A
:1001580018EC03F0E80E456E030E466E000E476E6F
:10016800000E486EF1EC02F00D0E4B6E000E18EC0E
:1001780003F0E80E456E030E466E000E476E000E45
:10018800486EF1EC02F01200496E64D045C047F0A9
:10019800010E486E472A02D0D8904836472EFCD721
:1001A80048509212120045C047F0010E486E472A87
:1001B80002D0D8904836472EFCD7485093121200E8
:1001C80045C047F0010E486E472A02D0D8904836FD
:1001D800472EFCD74850941212004950000AD8B450
:1001E800D5D7010AD8B4DFD7030AD8A41200E8D7B4
:1001F80045C047F0000E486E472A02D0D8904836CE
:10020800472EFCD748509216120045C047F0000E02
:10021800486E472A02D0D8904836472EFCD7485017
:100228009316120045C047F0000E486E472A02D0C8
:10023800D8904836472EFCD748509416120049509B
:10024800000AD8B4D5D7010AD8B4DFD7030AD8A48E
:100258001200E8D74650000AD8B4BFD7010AD8A47C
:100268001200EDD700018F6F000E0001916F000E94
:10027800906F000E4B6E010E18EC03F0000E00019B
:10028800916F000E906F91512BE1050E905DD8B0E3
:1002980027D0E00E8F25456E466AFF0E4622000ED7
:1002A800486E050E476E05EC03F0DF0E00018D6FFA
:1002B8001D0E8E6F45508D2746508E2390518D27E9
:1002C80091518E238DC0F6FF8EC0F7FF0800F5CF41
:1002D8004BF0010E18EC03F00001904B912BD3D793
:1002E800000E4B6E010E18EC03F01200486E2AD077
:1002F80045C046F0010E476E462A02D0D8904736D0
:10030800462EFCD74750FF0A8016120045C046F01B
:10031800010E476E462A02D0D8904736462EFCD7A3
:100328004750FF0A8116120045C046F0010E476E7D
:10033800462A02D0D8904736462EFCD74750FF0AA7
:10034800821612004850000AD8B4D2D7010AD8B48D
:10035800DDD7030AD8A41200E7D7486E27D045C0D6
:1003680046F0010E476E462A02D0D8904736462EF0
:10037800FCD747508012120045C046F0010E476E68
:10038800462A02D0D8904736462EFCD747508112CD
:10039800120045C046F0010E476E462A02D0D8909A
:1003A8004736462EFCD74750821212004850000AA2
:1003B800D8B4D5D7010AD8B4DFD7030AD8A4120015
:1003C800E8D7456E14D0720ED3121200600ED31205
:1003D8001200500ED3121200D38C1200300ED3121A
:1003E8001200D38A1200D3881200D350120045504D
:1003F800000AD8B4E8D7010AD8B4E8D7030AD8B4B1
:10040800E8D7010AD8B4E8D7070AD8B4E7D7010A69
:10041800D8B4E7D7030AD8B4E6D7010AD8A412009B
:10042800E4D7000EE5EC01F0FB0E476E1F0E486E98
:100438003DEC02F053EC00F0A3EC02F04F0E00018B
:100448009D6F20EE9EF010EE92F00A0EDBCFE3FFD8
:10045800E806FCE200019D5136EC01F0E80E456E1D
:10046800030E466E000E476E000E486EF1EC02F069
:10047800F1D7010E4724496E000E48204A6E49C044
:10048800F6FF4AC0F7FF0800F5CF45F047C0F6FF72
:1004980048C0F7FF0800F55084EC02F0020E47242C
:1004A800496E000E48204A6E49C0F6FF4AC0F7FF61
:1004B8000800F550DBEC02F01200920EF66E060E04
:1004C800F76E000EF86E00EE9EF010EE0BF00900CD
:1004D800F5CFEEFFE550E150FAE100EE60F02D0EA9
:1004E800EE6AE806FDE100EE01F0320EEE6AE8067B
:1004F800FDE14D904D92000EF86E000115EF02F0EF
:10050800466E949A9488949EC78CC79004D0C698D7
:100518000ED0C6880CD04650000AD8B4F8D7010AC5
:10052800D8B4F7D704D0C79C1200C78C1200455026
:10053800000AD8B4F8D7010AD8A41200F6D7000EDA
:100548000001906F000E8F6F000E906F000E8F6F7E
:10055800F80E8F5D010E9059D8B009D0000E4B6E81
:10056800010E18EC03F000018F4B902BF1D7000E11
:100578008D6F000E2BEC03F01200000E456E000E7E
:10058800466E000E476E000E486E48500FE1A00EF2
:10059800455C860E4658010E4758D8B01200010E29
:1005A8004526000E462247224822EFD71200456E04
:1005B80007D0000EC66E0ED0C6800CD0C6820AD0F8
:1005C8004550000AD8B4F5D7010AD8B4F5D7030ABC
:1005D800D8B4F4D7C68A9E96120045C049F046C0E2
:1005E8004AF047C04BF048C04CF049504A104B10F5
:1005F8004C10D8B412004906000E4A5A4B5A4C5AAD
:10060800F4D745504702F3CF49F0F4CF4AF04550AC
:100618004802F3504A2646504702F3504A2649C03A
:1006280045F04AC046F012004C6E4C50D8B406D083
:10063800020E456E010EB1EC01F005D0020E456EBA
:10064800010E7AEC01F04B503CEC03F01200000173
:100658008E6F00018E5180094B6E000E18EC03F06E
:1006680000018D5140094B6E000E18EC03F012008A
:10067800466E000E476E010E456E46C0C9FF9EA627
:10068800FED79E9647C0C9FF1200486F6C61204D87
:05069800756E646F00A7
:101DDE0000000000000000005F0000000700070088
:101DEE00147F147F14242A7F2A1223130864623668
:101DFE00495522500005030000001C2241000041FD
:101E0E00221C0014083E081408083E080800503032
:101E1E000000080808080800606000002010080490
:101E2E00023E5149453E00427F40004261514946C3
:101E3E002141454B311814127F1027454545393C39
:101E4E004A4949300171090503364949493606495F
:101E5E0049291E00363600000056360000081422AE
:101E6E0041001414141414004122140802015109E3
:101E7E0006324979413E7E1111117E7F494949361C
:101E8E003E414141227F4141221C7F494949417FC8
:101E9E00090909013E4149497A7F0808087F004136
:101EAE007F41002040413F017F081422417F404086
:101EBE0040407F020C027F7F0408107F3E4141416B
:101ECE003E7F090909063E4151215E7F09192946C7
:101EDE00464949493101017F01013F4040403F1FC2
:101EEE002040201F3F4038403F631408146307080A
:101EFE007008076151494543007F414100020408C3
:101F0E0010200041417F0004020102044040404085
:101F1E0040000102040020545454787F4844443851
:101F2E003844444420384444487F385454541808A4
:101F3E007E0901020C5252523E7F0804047800447E
:101F4E007D40002040443D007F1028440000417F2A
:101F5E0040007C041804787C080404783844444417
:101F6E00387C14141408081414187C7C0804040813
:101F7E004854545420043F4440203C4040207C1C94
:101F8E002040201C3C4030403C44281028440C503B
:101F9E0050503C4464544C44000836410000007FCD
:101FAE000000004136080010080810087846414627
:101FBE00780000000000000000000000000000009B
:101FCE000000000000000000000000000000000003
:101FDE0000000000000000000000000000000000F3
:101FEE0000000000000000000000000000000002E1
:011FFE0000E2
:020000040020DA
:08000000FFFFFFFFFFFFFFFF00
:020000040030CA
:0E000000FFC80F3E3C1D81FF0FC00FE00F40F8
:00000001FF
