:040000005DEF04F0BC
:1003000000B407B4065C0604066407AC0554050C8B
:1003100007D209BC09E809A609140A2A0AFE094EEF
:1003200009380922097A09900964098C0A7A0A9E17
:100330000ADC080C09F408400A680A560A000000A2
:0103400000BC
:10034200586E64D054C056F0010E576E562A02D031
:10035200D8905736562EFCD757509212120054C0DE
:1003620056F0010E576E562A02D0D8905736562EA6
:10037200FCD757509312120054C056F0010E576E1C
:10038200562A02D0D8905736562EFCD75750941280
:1003920012005850000AD8B4D5D7010AD8B4DFD712
:1003A200030AD8A41200E8D754C056F0000E576EC4
:1003B200562A02D0D8905736562EFCD7575092164E
:1003C200120054C056F0000E576E562A02D0D89032
:1003D2005736562EFCD757509316120054C056F07B
:1003E200000E576E562A02D0D8905736562EFCD79A
:1003F2005750941612005850000AD8B4D5D7010AA3
:10040200D8B4DFD7030AD8A41200E8D75550000A9F
:10041200D8B4BFD7010AD8A41200EDD7060E546E85
:10042200010E556E020EA1EC01F0070E546E000E85
:10043200556E020EA1EC01F0AC98AC9CAC8AAB9C60
:10044200AB88AB8EAA96AC9409D0670EAF6E120041
:10045200330EAF6E12000C0EAF6E120059C05BF07D
:100462005AC05CF05C50040AD8B407D00D0AD8B464
:1004720009D02C0AD8A412000AD05B50B00AD8A422
:100482001200E3D75B50600AD8A41200E1D75B5098
:10049200800AD8A41200DFD7546E14D0700ED31283
:1004A2001200600ED3121200500ED3121200D38C1F
:1004B2001200300ED3121200D38A1200D388120017
:1004C200D35012005450000AD8B4E8D7010AD8B465
:1004D200E8D7030AD8B4E8D7010AD8B4E8D7070A9C
:1004E200D8B4E7D7010AD8B4E7D7030AD8B4E6D715
:1004F200010AD8A41200E4D7000E5F6E000E4DEC84
:1005020002F03D0E566E030E576E02EC04F0250EFD
:100512005A6E800E596E0FEC02F05F50020D010E02
:10052200F324F66E030EF420F76E0900F5CF5DF0AA
:100532000A00F5CF5EF001D80AD00500FA6E5D50D0
:10054200FD6E5E50FE6EF850FF6EFA5012005F6E46
:10055200E4D7060E316E4D50020D350EF324F66EC1
:10056200030EF420F76E0900F5CF57F00A00F5CF1D
:1005720058F02FC054F030C055F031C056F001D8B9
:100582000AD00500FA6E5750FD6E5850FE6EF850B4
:10059200FF6EFA50120054C02FF055C030F056C012
:1005A20031F030C04DF031501200050E346E4E5015
:1005B200020D190EF324F66E030EF420F76E0900F5
:1005C200F5CF57F00A00F5CF58F032C054F033C0DF
:1005D20055F034C056F001D80AD00500FA6E5750D3
:1005E200FD6E5850FE6EF850FF6EFA50120054C065
:1005F20032F055C033F056C034F033C04EF03450B0
:100602001200030E376E5050020D1F0EF324F66EC9
:10061200030EF420F76E0900F5CF57F00A00F5CF6C
:1006220058F035C054F036C055F037C056F001D8F6
:100632000AD00500FA6E5750FD6E5850FE6EF85003
:10064200FF6EFA50120054C035F055C036F056C055
:1006520037F036C050F037501200020E3A6E515049
:10066200020D250EF324F66E030EF420F76E090038
:10067200F5CF57F00A00F5CF58F038C054F039C022
:1006820055F03AC056F001D80AD00500FA6E57501C
:10069200FD6E5850FE6EF850FF6EFA50120054C0B4
:1006A20038F055C039F056C03AF039C051F03A50DE
:1006B2001200010E3D6E5250020D110EF324F66E21
:1006C200030EF420F76E0900F5CF57F00A00F5CFBC
:1006D20058F03BC054F03CC055F03DC056F001D834
:1006E2000AD00500FA6E5750FD6E5850FE6EF85053
:1006F200FF6EFA50120054C03BF055C03CF056C099
:100702003DF03CC052F03D501200070E2E6E4C5090
:10071200020D310EF324F66E030EF420F76E09007B
:10072200F5CF57F00A00F5CF58F02CC054F02DC089
:1007320055F02EC056F001D80AD00500FA6E575077
:10074200FD6E5850FE6EF850FF6EFA50120054C003
:100752002CF055C02DF056C02EF02DC04CF02E506E
:100762001200040E496E4F50020D390EF324F66E3C
:10077200030EF420F76E0900F5CF56F00A00F5CF0C
:1007820057F048C054F049C055F001D80AD00500CE
:10079200FA6E5650FD6E5750FE6EF850FF6EFA50CC
:1007A200120054C048F055C049F048C04FF04950BB
:1007B2001200000E4B6E5350020D2B0EF324F66EF8
:1007C200030EF420F76E0900F5CF56F00A00F5CFBC
:1007D20057F04AC054F04BC055F001D80AD005007A
:1007E200FA6E5650FD6E5750FE6EF850FF6EFA507C
:1007F200120054C04AF055C04BF04AC053F04B505F
:100802001200010E5624586E000E5720596E58C021
:10081200F6FF59C0F7FF0800F5CF54F056C0F6FFB7
:1008220057C0F7FF0800F55026EC04F0020E5624DC
:10083200586E000E5720596E58C0F6FF59C0F7FF88
:100842000800F55045EC04F01200556E3F0EC71635
:10085200C00EC616C78C04D0C6980ED0C6880CD05F
:100862005550000AD8B4F8D7010AD8B4F7D704D043
:10087200C79C1200C78C12005450000AD8B4F8D793
:10088200010AD8A41200F6D7546E07D0000EC66E25
:100892000ED0C6800CD0C6820AD05450000AD8B4FA
:1008A200F5D7010AD8B4F5D7030AD8B4F4D7949A85
:1008B2009488949EC68A120000EE60F00C0EEE6AD6
:1008C200E806FDE100EE01F0530EEE6AE806FDE1F6
:1008D200000EF86E00017DEF02F0010E0001646F60
:1008E20056C065F063C054F064C055F065C056F060
:1008F2001200010E00016A6F56C06BF069C054F01D
:100902006AC055F06BC056F0120055C061F056C077
:1009120062F060C054F061C055F062C056F012003F
:1009220055C00FF056C010F00EC054F00FC055F075
:1009320010C056F01200020E126E56C013F011C013
:1009420054F012C055F013C056F01200010E156E8D
:1009520056C016F014C054F015C055F016C056F02B
:10096200120055C018F056C019F017C054F018C044
:1009720055F019C056F01200010E1E6E56C01FF03F
:100982001DC054F01EC055F01FC056F01200020EDA
:100992001B6E56C01CF01AC054F01BC055F01CC090
:1009A20056F0120055C021F056C022F020C054F07B
:1009B20021C055F022C056F01200020E276E56C01A
:1009C20028F026C054F027C055F028C056F0120077
:1009D200010E2A6E56C02BF029C054F02AC055F0E1
:1009E2002BC056F01200030E246E56C025F023C011
:1009F20054F024C055F025C056F0120055C006F040
:100A020056C007F005C054F006C055F007C056F0B6
:100A12001200010E0C6E56C00DF00BC054F00CC04B
:100A220055F00DC056F01200020E096E56C00AF0C3
:100A320008C054F009C055F00AC056F0120055C063
:100A420067F056C068F066C054F067C055F068C0E1
:100A520056F0120054C03EF055C03FF03EC054F074
:100A62003FC055F01200010E406E55C041F040C02B
:100A720054F041C055F01200020E446E55C045F0CC
:100A820044C054F045C055F01200010E466E55C0E8
:100A920047F046C054F047C055F0120054C042F02F
:0E0AA20055C043F042C054F043C055F012005E
:020000040020DA
:08000000FFFFFFFFFFFFFFFF00
:020000040030CA
:0E000000FFCF0F3F3C9D85FF0FC00FE00F406C
:00000001FF
