:0400000051EF00F0CC
:100008004D82FACF36F0FBCF37F0E9CF38F0EACFA0
:1000180039F0E1CF3AF0E2CF3BF0D9CF3CF0DACF7C
:100028003DF0F3CF3EF0F4CF3FF0F6CF40F0F7CFFE
:1000380041F0F8CF42F0F5CF43F04DC044F04EC048
:1000480045F04FC046F050C047F0F2B2F29247C0B8
:1000580050F046C04FF045C04EF044C04DF043C08C
:10006800F5FF42C0F8FF41C0F7FF40C0F6FF3FC0B0
:10007800F4FF3EC0F3FF3DC0DAFF3CC0D9FF3BC0F0
:10008800E2FF3AC0E1FF39C0EAFF38C0E9FF37C0F4
:10009800FBFF36C0FAFF4D92110076EF01F04C6E6F
:1000A80064D048C04AF0010E4B6E4A2A02D0D8905C
:1000B8004B364A2EFCD74B509212120048C04AF0D9
:1000C800010E4B6E4A2A02D0D8904B364A2EFCD7E6
:1000D8004B509312120048C04AF0010E4B6E4A2A48
:1000E80002D0D8904B364A2EFCD74B5094121200AF
:1000F8004C50000AD8B4D5D7010AD8B4DFD7030AC0
:10010800D8A41200E8D748C04AF0000E4B6E4A2A1D
:1001180002D0D8904B364A2EFCD74B50921612007C
:1001280048C04AF0000E4B6E4A2A02D0D8904B368F
:100138004A2EFCD74B509316120048C04AF0000EC6
:100148004B6E4A2A02D0D8904B364A2EFCD74B50D9
:10015800941612004C50000AD8B4D5D7010AD8B466
:10016800DFD7030AD8A41200E8D74950000AD8B448
:10017800BFD7010AD8A41200EDD7060E486E010EAB
:10018800496E020E53EC00F007D0670E03D0330E11
:1001980001D00C0EAF6E1ED08AC08CF08BC08DF0D3
:1001A80000018D51040AD8B407D00D0AD8B409D07B
:1001B8002C0AD8B40BD00ED08C51B00AD8B4E5D7DD
:1001C80009D08C51600AD8B4E2D704D08C51800A87
:1001D800D8B4DFD7AC98AC9CAC8AAB9CAB98AB8E50
:1001E800AA96AC941200486E14D0720ED312120064
:1001F800600ED3121200500ED3121200D38C1200CC
:10020800300ED3121200D38A1200D3881200D350B2
:1002180012004850000AD8B4E8D7010AD8B4E8D781
:10022800030AD8B4E8D7010AD8B4E8D7070AD8B47B
:10023800E7D7010AD8B4E7D7030AD8B4E6D7010A42
:10024800D8A41200E4D7000EF7EC00F0250E000148
:100258008B6F800E8A6FC1EC00F04F0E00019B6F10
:1002680020EE9CF010EE90F00A0EDBCFE3FFE806DC
:10027800FCE2900E00018E6F000E8F6F4FEC01F0C4
:10028800E80E486E030E496E000E4A6E000E4B6E65
:1002980099EC01F0EED7000E4C6E17D04C50010DC2
:1002A800F35000018E25D96EF4508F21DA6EDF509D
:1002B800AEEC01F0DC0E486E050E496E000E4A6E7B
:1002C800000E4B6E99EC01F04C2A4C50010DF35086
:1002D80000018E25D96EF4508F21DA6EDF50D8B424
:1002E8001200DCD7680EF66E030EF76E000EF86E7D
:1002F80000EE9CF010EE0BF00900F5CFEEFFE55094
:10030800E150FAE100EE60F02A0EEE6AE806FDE13F
:1003180000EE01F0350EEE6AE806FDE14D904D92D3
:10032800000EF86E000127EF01F048C08AF049C0BE
:100338008BF04AC08CF04BC08DF000018A518B11B4
:100348008C118D11D8B412008A07000E8B5B8C5B60
:100358008D5BF4D7486EACA2FED748C0ADFF120043
:0B036800486F6C61204D756E646F00E3
:101DDE0000000000000000005F0000000700070088
:101DEE00147F147F14242A7F2A1223130864623668
:101DFE00495522500005030000001C2241000041FD
:101E0E00221C0014083E081408083E080800503032
:101E1E000000080808080800606000002010080490
:101E2E00023E5149453E00427F40004261514946C3
:101E3E002141454B311814127F1027454545393C39
:101E4E004A4949300171090503364949493606495F
:101E5E0049291E00363600000056360000081422AE
:101E6E0041001414141414004122140802015109E3
:101E7E0006324979413E7E1111117E7F494949361C
:101E8E003E414141227F4141221C7F494949417FC8
:101E9E00090909013E4149497A7F0808087F004136
:101EAE007F41002040413F017F081422417F404086
:101EBE0040407F020C027F7F0408107F3E4141416B
:101ECE003E7F090909063E4151215E7F09192946C7
:101EDE00464949493101017F01013F4040403F1FC2
:101EEE002040201F3F4038403F631408146307080A
:101EFE007008076151494543007F414100020408C3
:101F0E0010200041417F0004020102044040404085
:101F1E0040000102040020545454787F4844443851
:101F2E003844444420384444487F385454541808A4
:101F3E007E0901020C5252523E7F0804047800447E
:101F4E007D40002040443D007F1028440000417F2A
:101F5E0040007C041804787C080404783844444417
:101F6E00387C14141408081414187C7C0804040813
:101F7E004854545420043F4440203C4040207C1C94
:101F8E002040201C3C4030403C44281028440C503B
:101F9E0050503C4464544C44000836410000007FCD
:101FAE000000004136080010080810087846414627
:101FBE00780000000000000000000000000000009B
:101FCE000000000000000000000000000000000003
:101FDE0000000000000000000000000000000000F3
:101FEE0000000000000000000000000000000002E1
:011FFE0000E2
:020000040020DA
:08000000FFFFFFFFFFFFFFFF00
:020000040030CA
:0E000000FFC80F3E3C1D81FF0FC00FE00F40F8
:00000001FF
