:04000000EBEF0CF026
:10182900486F6C61204D756E646F00466E46C0C985
:10183900FF9EA6FED79E9612004F6E4F5080094C10
:101849006E000E2FEC0CF04E5040094C6E000E2F1E
:10185900EC0CF012004D6E4D50D8B406D0020E4675
:101869006E010E8AEC0DF005D0020E466E010EBE19
:10187900EC0DF04C501AEC0CF0120046504802F3F3
:10188900CF4AF0F4CF4BF046504902F3504B26476C
:10189900504802F3504B264AC046F04BC047F0125D
:1018A9000046C04AF047C04BF048C04CF049C04D13
:1018B900F04A504B104C104D10D8B412004A060093
:1018C9000E4B5A4C5A4D5AF4D7466E07D0000EC6E5
:1018D9006E0ED0C6800CD0C6820AD04650000AD8F7
:1018E900B4F5D7010AD8B4F5D7030AD8B4F4D7C6E2
:1018F9008A9E961200030E466E000E476E000E6D0C
:10190900EC0EF0B896040E466E000E476E000E6D92
:10191900EC0EF0B898030E466E000E476E020E6D7F
:10192900EC0EF01200000E466E000E476E000E48D7
:101939006E000E496E495048100DE1500E465CC3C9
:101949000E4758D8B01200010E4626000E4722480D
:10195900224922F0D71200000E516E000E506E007F
:101969000E516E000E506EF80E505C010E5158D893
:10197900B008D0000E4C6E010E2FEC0CF0504A51FD
:101989002AF2D7000E4E6E000E21EC0CF012004721
:101999006E949A9488949EC78CC79004D0C6980E6A
:1019A900D0C6880CD04750000AD8B4F8D7010AD855
:1019B900B4F7D704D0C79C1200C78C120046500058
:1019C9000AD8B4F8D7010AD8A41200F6D7290EF616
:1019D9006E180EF76E000EF86E00EE81F010EE0B29
:1019E900F00900F5CFEEFFE550E150FAE100EE60B5
:1019F900F0210EEE6AE806FDE100EE01F0450EEE7B
:101A09006AE806FDE1000EF86E000130EF0DF00105
:101A19000E48244A6E000E49204B6E4AC0F6FF4B11
:101A2900C0F7FF0800F5CF46F048C0F6FF49C0F7F8
:101A3900FF0800F550CCEC0CF0020E48244A6E0069
:101A49000E49204B6E4AC0F6FF4BC0F7FF0800F560
:101A59005069EC0CF01200000E5E6E000E5AEC0D8F
:101A6900F0FC0E486E1F0E496E0CEC0DF0F5EC0DF6
:101A7900F0B0EC0CF07FEC0CF06F0E5F6E20EE8195
:101A8900F010EE53F00A0EDBCFE3FFE806FCE25F4D
:101A9900502EEC0EF0500E466EC30E476E000E48E7
:101AA9006E000E496E55EC0CF0F2D7466E14D072EA
:101AB9000ED3121200600ED3121200500ED312125E
:101AC90000D38C1200300ED3121200D38A1200D325
:101AD900881200D35012004650000AD8B4E8D70142
:101AE9000AD8B4E8D7030AD8B4E8D7010AD8B4E8C1
:101AF900D7070AD8B4E7D7010AD8B4E7D7030AD871
:101B0900B4E6D7010AD8A41200E4D7496E27D04613
:101B1900C047F0010E486E472A02D0D89048364790
:101B29002EFCD748508012120046C047F0010E48DB
:101B39006E472A02D0D8904836472EFCD7485081A4
:101B490012120046C047F0010E486E472A02D0D84B
:101B5900904836472EFCD74850821212004950004F
:101B69000AD8B4D5D7010AD8B4DFD7030AD8A41242
:101B790000E8D7496E2AD046C047F0010E486E47A3
:101B89002A02D0D8904836472EFCD74850FF0A8001
:101B990016120046C047F0010E486E472A02D0D8F7
:101BA900904836472EFCD74850FF0A811612004646
:101BB900C047F0010E486E472A02D0D890483647F0
:101BC9002EFCD74850FF0A821612004950000AD845
:101BD900B4D2D7010AD8B4DDD7030AD8A41200E7D2
:101BE900D7020E466E010E476E010E6DEC0EF00126
:101BF9000E466E010E476E010E6DEC0EF0010E469B
:101C09006E010EBEEC0DF097EC0CF0010E466E0164
:101C19000E8AEC0DF0210E4C6E000E2FEC0CF0B17B
:101C29000E4C6E000E2FEC0CF0040E4C6E000E2FB5
:101C3900EC0CF0140E4C6E000E2FEC0CF0200E4C38
:101C49006E000E2FEC0CF00C0E4C6E000E2FEC0CEF
:101C5900F01200506E000E526E000E516E000E4CC6
:101C69006E010E2FEC0CF0000E526E000E516E52EA
:101C79005029E1050E515CD8B025D0E00E5024461C
:101C89006E476AFF0E4722000E496E050E486E42E6
:101C9900EC0CF0B70E4E6E1D0E4F6E46504E264799
:101CA900504F2251504E2652504F224EC0F6FF4FF0
:101CB900C0F7FF0800F5CF4CF0010E2FEC0CF051E6
:101CC9004A522AD5D7000E4C6E010E2FEC0CF01299
:101CD900004A6E64D046C048F0010E496E482A0297
:101CE900D0D8904936482EFCD74950921212004656
:101CF900C048F0010E496E482A02D0D890493648AA
:101D09002EFCD749509312120046C048F0010E49E3
:101D19006E482A02D0D8904936482EFCD7495094AB
:101D29001212004A50000AD8B4D5D7010AD8B4DF34
:101D3900D7030AD8A41200E8D746C048F0000E49D4
:101D49006E482A02D0D8904936482EFCD74950927D
:101D590016120046C048F0000E496E482A02D0D833
:101D6900904936482EFCD749509316120046C04870
:101D7900F0000E496E482A02D0D8904936482EFC08
:101D8900D74950941612004A50000AD8B4D5D70141
:101D99000AD8B4DFD7030AD8A41200E8D7475000FD
:101DA9000AD8B4BFD7010AD8A41200EDD7000000A1
:101DB90000000000005F00000007000700147F1406
:101DC9007F14242A7F2A1223130864623649552274
:101DD900500005030000001C2241000041221C00A4
:101DE90014083E081408083E08080050300000088E
:101DF90008080808006060000020100804023E512D
:101E090049453E00427F40004261514946214145D2
:101E19004B311814127F1027454545393C4A494929
:101E29003001710905033649494936064949291ED0
:101E3900003636000000563600000814224100140E
:101E490014141414004122140802015109063249DC
:101E590079413E7E1111117E7F494949363E414102
:101E690041227F4141221C7F494949417F09090992
:101E7900013E4149497A7F0808087F00417F4100B6
:101E89002040413F017F081422417F404040407F6C
:101E9900020C027F7F0408107F3E4141413E7F09C9
:101EA9000909063E4151215E7F09192946464949DA
:101EB900493101017F01013F4040403F1F2040203F
:101EC9001F3F4038403F6314081463070870080730
:101ED9006151494543007F41410002040810200037
:101EE90041417F000402010204404040404000019A
:101EF90002040020545454787F48444438384444F8
:101F09004420384444487F3854545418087E090101
:101F1900020C5252523E7F0804047800447D40006E
:101F29002040443D007F1028440000417F40007C50
:101F3900041804787C0804047838444444387C1430
:101F4900141408081414187C7C0804040848545410
:101F59005420043F4440203C4040207C1C20402029
:101F69001C3C4030403C44281028440C5050503C04
:101F79004464544C44000836410000007F000000CE
:101F890041360800100808100878464146780000D4
:101F990000000000000000000000000000004D45A6
:101FA900444943494F4E2044450054524946415300
:101FB90049434F000000000000000000000000003D
:101FC90000000000456E76696172000000000000A3
:101FD900000000000000000000000000005445530C
:101FE90054004D656E7500000000000000000000FF
:071FF90000000000000200DF
:020000040020DA
:08000000FFFFFFFFFFFFFFFF00
:020000040030CA
:0E000000FFC80F3E3C1D81FF0FC00FE00F40F8
:00000001FF
