:0400000080EF0DF090
:101AA500486F6C61204D756E646F0082A602D0018F
:101AB5000E01D0000E446E4450120080A602D001E3
:101AC5000E01D0000E436E43501200030E4E6E0001
:101AD5000E4F6E020E6DEC0EF0030E4E6E000E4FA5
:101AE5006E000E6DEC0EF0B896040E4E6E000E4FA5
:101AF5006E000E6DEC0EF0B8981200A50EF66E1A7B
:101B05000EF76E000EF86E00EE78F010EE0BF00991
:101B150000F5CFEEFFE550E150FAE100EE60F01878
:101B25000EEE6AE806FDE100EE01F04D0EEE6AE804
:101B350006FDE1000EF86E0001D1EF0DF04E6E14BA
:101B4500D0720ED3121200600ED3121200500ED3B3
:101B5500121200D38C1200300ED3121200D38A1247
:101B650000D3881200D35012004E50000AD8B4E8B2
:101B7500D7010AD8B4E8D7030AD8B4E8D7010AD8F8
:101B8500B4E8D7070AD8B4E7D7010AD8B4E7D7032A
:101B95000AD8B4E6D7010AD8A41200E4D7000EA1EA
:101BA500EC0DF068EC0DF06F0E5E6E20EE78F01027
:101BB500EE53F00A0EDBCFE3FFE806FCE2000E4E23
:101BC5006E010E4F6E010E6DEC0EF0000E4E6E01A5
:101BD5000E36EC0EF058EC0DF0E806D8A405D00052
:101BE5000E4E6E010E36EC0EF060EC0DF0E806D8E8
:101BF500A4F1D7000E4E6E010E02EC0EF0EBD7519C
:101C05006E27D04EC04FF0010E506E4F2A02D0D82D
:101C15009050364F2EFCD75050801212004EC04FB8
:101C2500F0010E506E4F2A02D0D89050364F2EFC40
:101C3500D75050811212004EC04FF0010E506E4F1A
:101C45002A02D0D89050364F2EFCD750508212120F
:101C5500005150000AD8B4D5D7010AD8B4DFD7034C
:101C65000AD8A41200E8D7516E2AD04EC04FF00111
:101C75000E506E4F2A02D0D89050364F2EFCD750BA
:101C850050FF0A801612004EC04FF0010E506E4FE5
:101C95002A02D0D89050364F2EFCD75050FF0A81DB
:101CA5001612004EC04FF0010E506E4F2A02D0D8CA
:101CB5009050364F2EFCD75050FF0A821612005115
:101CC50050000AD8B4D2D7010AD8B4DDD7030AD850
:101CD500A41200E7D7526E64D04EC050F0010E51E9
:101CE5006E502A02D0D8905136502EFCD7515092C2
:101CF5001212004EC050F0010E516E502A02D0D87B
:101D0500905136502EFCD75150931212004EC050B0
:101D1500F0010E516E502A02D0D8905136502EFC4B
:101D2500D75150941212005250000AD8B4D5D70199
:101D35000AD8B4DFD7030AD8A41200E8D74EC0509A
:101D4500F0000E516E502A02D0D8905136502EFC1C
:101D5500D75150921612004EC050F0000E516E50E1
:101D65002A02D0D8905136502EFCD75150931612D6
:101D7500004EC050F0000E516E502A02D0D890513E
:101D850036502EFCD75150941612005250000AD8E6
:101D9500B4D5D7010AD8B4DFD7030AD8A41200E80E
:101DA500D74F50000AD8B4BFD7010AD8A41200ED06
:101DB500D700000000000000005F000000070007DA
:101DC50000147F147F14242A7F2A122313086462C7
:101DD50036495522500005030000001C2241000031
:101DE50041221C0014083E081408083E080800504B
:101DF500300000080808080800606000002010088E
:101E050004023E5149453E00427F4000426151492E
:101E1500462141454B311814127F10274545453958
:101E25003C4A494930017109050336494949360695
:101E35004949291E003636000000563600000814B0
:101E450022410014141414140041221408020151F3
:101E55000906324979413E7E1111117E7F49494972
:101E6500363E414141227F4141221C7F494949413A
:101E75007F090909013E4149497A7F0808087F0021
:101E8500417F41002040413F017F081422417F40AE
:101E95004040407F020C027F7F0408107F3E414195
:101EA500413E7F090909063E4151215E7F091929F5
:101EB50046464949493101017F01013F4040403FC4
:101EC5001F2040201F3F4038403F6314081463071C
:101ED500087008076151494543007F4141000204EC
:101EE5000810200041417F000402010204404040E7
:101EF5004040000102040020545454787F48444473
:101F0500383844444420384444487F38545454189D
:101F1500087E0901020C5252523E7F0804047800E3
:101F2500447D40002040443D007F1028440000418E
:101F35007F40007C041804787C0804047838444405
:101F450044387C14141408081414187C7C08040400
:101F5500084854545420043F4440203C4040207CD1
:101F65001C2040201C3C4030403C44281028440C98
:101F75005050503C4464544C440008364100000025
:101F85007F00000041360800100808100878464117
:101F9500467800000000000000000000000000007E
:101FA50000004D45444943494F4E20444500545295
:101FB5004946415349434F0000000000000000001E
:101FC5000000000000000000456E766961720000A7
:101FD50000000000000000000000000000000000FC
:101FE5000054455354004D656E7500000000000017
:0B1FF5000000000000000000000000E1
:020000040020DA
:08000000FFFFFFFFFFFFFFFF00
:020000040030CA
:0E000000FFC80F3E3C1D81FF0FC00FE00F40F8
:00000001FF
