:0400000054EF00F0C9
:100008004D82FACF33F0FBCF34F0E9CF35F0EACFA9
:1000180036F0E1CF37F0E2CF38F0D9CF39F0DACF88
:100028003AF0F3CF3BF0F4CF3CF0F6CF3DF0F7CF0A
:100038003EF0F8CF3FF0F5CF40F04DC041F04EC054
:1000480042F04FC043F050C044F0F2A203D0F29205
:10005800010E296E44C050F043C04FF042C04EF02C
:1000680041C04DF040C0F5FF3FC0F8FF3EC0F7FF6C
:100078003DC0F6FF3CC0F4FF3BC0F3FF3AC0DAFFD7
:1000880039C0D9FF38C0E2FF37C0E1FF36C0EAFF08
:1000980035C0E9FF34C0FBFF33C0FAFF4D921100B1
:1000A80028EF02F0496E64D045C047F0010E486E53
:1000B800472A02D0D8904836472EFCD7485092128B
:1000C800120045C047F0010E486E472A02D0D8906A
:1000D8004836472EFCD748509312120045C047F0C7
:1000E800010E486E472A02D0D8904836472EFCD7D2
:1000F8004850941212004950000AD8B4D5D7010AC2
:10010800D8B4DFD7030AD8A41200E8D745C047F00F
:10011800000E486E472A02D0D8904836472EFCD7A2
:1001280048509216120045C047F0000E486E472A04
:1001380002D0D8904836472EFCD748509316120064
:1001480045C047F0000E486E472A02D0D89048367E
:10015800472EFCD74850941612004950000AD8B4CC
:10016800D5D7010AD8B4DFD7030AD8A41200E8D734
:100178004650000AD8B4BFD7010AD8A41200EDD758
:100188000001956F000E0001976F000E966F000E2C
:100198004B6E010EDFEC02F0000E0001976F000EAF
:1001A800966F97512BE1050E965DD8B027D0E00EDB
:1001B8009525456E466AFF0E4622000E486E050ECE
:1001C800476ECCEC02F0B70E0001936F1D0E946FD2
:1001D800455093274650942396519327975194233B
:1001E80093C0F6FF94C0F7FF0800F5CF4BF0010E5F
:1001F800DFEC02F00001964B972BD3D7000E4B6E25
:10020800010EDFEC02F01200020E456E010E466E82
:10021800010E56EC00F0010E456E010E466E010E01
:1002280056EC00F0010E456E010E41EC01F088EC31
:1002380002F0010E456E010E78EC01F0210E4B6EB6
:10024800000EDFEC02F0840E4B6E000EDFEC02F0C5
:10025800070E4B6E000EDFEC02F0C00E4B6E000E68
:10026800DFEC02F0200E4B6E000EDFEC02F00D0EFC
:100278004B6E000EDFEC02F01200486E2AD045C02B
:1002880046F0010E476E462A02D0D8904736462ED1
:10029800FCD74750FF0A8016120045C046F0010EF1
:1002A800476E462A02D0D8904736462EFCD747508C
:1002B800FF0A8116120045C046F0010E476E462A15
:1002C80002D0D8904736462EFCD74750FF0A8216F0
:1002D80012004850000AD8B4D2D7010AD8B4DDD7E2
:1002E800030AD8A41200E7D7486E27D045C046F0C5
:1002F800010E476E462A02D0D8904736462EFCD7C4
:1003080047508012120045C046F0010E476E462A3B
:1003180002D0D8904736462EFCD74750811212009B
:1003280045C046F0010E476E462A02D0D89047369F
:10033800462EFCD74750821212004850000AD8B403
:10034800D5D7010AD8B4DFD7030AD8A41200E8D752
:10035800456E14D0720ED3121200600ED312120022
:10036800500ED3121200D38C1200300ED31212008A
:10037800D38A1200D3881200D35012004550000AC5
:10038800D8B4E8D7010AD8B4E8D7030AD8B4E8D76C
:10039800010AD8B4E8D7070AD8B4E7D7010AD8B40D
:1003A800E7D7030AD8B4E6D7010AD8A41200E4D7DD
:1003B800000EACEC01F0FC0E476E1F0E486E04EC0C
:1003C80002F008EC01F06AEC02F06F0E0001A36F76
:1003D80020EEA4F010EE98F00A0EDBCFE3FFE8065B
:1003E800FCE20001A351C4EC00F0E80E456E030ED8
:1003F800466E000E476E000E486EB8EC02F0F1D75C
:10040800010E4724496E000E48204A6E49C0F6FF87
:100418004AC0F7FF0800F5CF45F047C0F6FF48C0CF
:10042800F7FF0800F5504BEC02F0020E4724496E26
:10043800000E48204A6E49C0F6FF4AC0F7FF080080
:10044800F550A2EC02F01200120EF66E060EF76ED0
:10045800000EF86E00EEA4F010EE0BF00900F5CFD8
:10046800EEFFE550E150FAE100EE60F0330EEE6A7F
:10047800E806FDE100EE01F0320EEE6AE806FDE165
:100488004D904D92000EF86E0001DCEF01F0466EC3
:10049800949A9488949EC78CC79004D0C6980ED01E
:1004A800C6880CD04650000AD8B4F8D7010AD8B488
:1004B800F7D704D0C79C1200C78C12004550000A19
:1004C800D8B4F8D7010AD8A41200F6D7000E000154
:1004D800966F000E956F000E966F000E956FF80ED2
:1004E800955D010E9659D8B009D0000E4B6E010EDD
:1004F800DFEC02F00001954B962BF1D7000E936FBD
:10050800000EF2EC02F01200000E456E000E466E70
:10051800000E476E000E486E48500FE1400E455CD5
:10052800420E46580F0E4758D8B01200010E452605
:10053800000E462247224822EFD71200456E07D008
:10054800000EC66E0ED0C6800CD0C6820AD04550AA
:10055800000AD8B4F5D7010AD8B4F5D7030AD8B435
:10056800F4D7C68A9E96120045C049F046C04AF0A4
:1005780047C04BF048C04CF049504A104B104C1043
:10058800D8B412004906000E4A5A4B5A4C5AF4D7AE
:1005980045504702F3CF49F0F4CF4AF0455048029E
:1005A800F3504A2646504702F3504A2649C045F0C0
:1005B8004AC046F012004C6E4C50D8B406D0020E19
:1005C800456E010E78EC01F005D0020E456E010E65
:1005D80041EC01F04B5003EC03F012000001946F62
:1005E8000001945180094B6E000EDFEC02F000010F
:1005F800935140094B6E000EDFEC02F01200456E7D
:1006080045C0C9FFC7B01200FDD7486F6C61204DC7
:05061800756E646F0027
:101DB60000000000000000005F00000007000700B0
:101DC600147F147F14242A7F2A1223130864623690
:101DD600495522500005030000001C224100004125
:101DE600221C0014083E081408083E08080050305B
:101DF60000000808080808006060000020100804B9
:101E0600023E5149453E00427F40004261514946EB
:101E16002141454B311814127F1027454545393C61
:101E26004A49493001710905033649494936064987
:101E360049291E00363600000056360000081422D6
:101E4600410014141414140041221408020151090B
:101E560006324979413E7E1111117E7F4949493644
:101E66003E414141227F4141221C7F494949417FF0
:101E7600090909013E4149497A7F0808087F00415E
:101E86007F41002040413F017F081422417F4040AE
:101E960040407F020C027F7F0408107F3E41414193
:101EA6003E7F090909063E4151215E7F09192946EF
:101EB600464949493101017F01013F4040403F1FEA
:101EC6002040201F3F4038403F6314081463070832
:101ED6007008076151494543007F414100020408EB
:101EE60010200041417F00040201020440404040AE
:101EF60040000102040020545454787F484444387A
:101F06003844444420384444487F385454541808CC
:101F16007E0901020C5252523E7F080404780044A6
:101F26007D40002040443D007F1028440000417F52
:101F360040007C041804787C08040478384444443F
:101F4600387C14141408081414187C7C080404083B
:101F56004854545420043F4440203C4040207C1CBC
:101F66002040201C3C4030403C44281028440C5063
:101F760050503C4464544C44000836410000007FF5
:101F8600000000413608001008081008784641464F
:101F960078000000000000000000000000000000C3
:101FA600004D45444943494F4E204445005452494B
:101FB60046415349434F0000000000000000000066
:101FC60000000000000000456E76696172000000A6
:101FD60000000000000000000000000000000000FB
:101FE60054455354004D656E750000000000000016
:0A1FF60000000000000000000200DF
:020000040020DA
:08000000FFFFFFFFFFFFFFFF00
:020000040030CA
:0E000000FFC80F3E3C1D81FF0FC00FE00F40F8
:00000001FF
