:0400000051EF00F0CC
:100008004E82FACF3CF0FBCF3DF0E9CF3EF0EACF8D
:100018003FF0E1CF40F0E2CF41F0D9CF42F0DACF64
:1000280043F0F3CF44F0F4CF45F0F6CF46F0F7CFE6
:1000380047F0F8CF48F0F5CF49F04EC04AF04FC02E
:100048004BF050C04CF051C04DF0F2B2F2924DC09E
:1000580051F04CC050F04BC04FF04AC04EF049C070
:10006800F5FF48C0F8FF47C0F7FF46C0F6FF45C098
:10007800F4FF44C0F3FF43C0DAFF42C0D9FF41C0D8
:10008800E2FF40C0E1FF3FC0EAFF3EC0E9FF3DC0DC
:10009800FBFF3CC0FAFF4E92110040EF04F0000154
:1000A800886F6CD084C086F0010E0001876F862BA4
:1000B80002D0D8908737862FFCD70001875192123B
:1000C800120084C086F0010E876F862B02D0D8906C
:1000D8008737862FFCD7000187519312120084C0FE
:1000E80086F0010E876F862B02D0D8908737862F2F
:1000F800FCD7000187519412120000018851000AB0
:10010800D8B4D0D7010AD8B4DCD7030AD8A41200CF
:10011800E6D784C086F0000E876F862B02D0D89071
:100128008737862FFCD7000187519216120084C0AA
:1001380086F0000E876F862B02D0D8908737862FDF
:10014800FCD7000187519316120084C086F0000E78
:10015800876F862B02D0D8908737862FFCD700016F
:100168008751941612008851000AD8B4D2D7010AD0
:10017800D8B4DDD7030AD8A41200E7D70001855107
:10018800000AD8B4BAD7010AD8A41200ECD7020ED4
:100198000001846F010E856F010E53EC00F0010E13
:1001A8000001846F010E856F010E53EC00F0010E03
:1001B8000001846F010E4FEC01F00FEC04F0010E0A
:1001C8000001846F010E8CEC01F0210E0001886F94
:1001D800000E29EC04F0B80E0001886F000E29EC1F
:1001E80004F0040E0001886F000E29EC04F0140ED0
:1001F8000001886F000E29EC04F0200E0001886FC2
:10020800000E29EC04F00C0E0001886F000E29EC9A
:1002180004F01200060E0001846F010E856F020EB5
:1002280053EC00F0070E0001846F000E856F020E7C
:1002380053EC00F0AC98AC9CAC8AAB9CAB88AB8E12
:10024800AA96AC9409D0670EAF6E1200330EAF6E4B
:1002580012000C0EAF6E120089C08BF08AC08CF0B1
:1002680000018C51040AD8B407D00D0AD8B409D0BB
:100278002C0AD8A412000AD08B51B00AD8A41200B4
:10028800E2D78B51600AD8A41200E0D78B51800ABC
:10029800D8A41200DED70001876F2ED084C085F065
:1002A800010E0001866F852B02D0D8908637852FE6
:1002B800FCD700018651FF0A8016120084C085F021
:1002C800010E866F852B02D0D8908637852FFCD7F4
:1002D80000018651FF0A8116120084C085F0010EC4
:1002E800866F852B02D0D8908637852FFCD70001E2
:1002F8008651FF0A8216120000018751000AD8B4FD
:10030800CDD7010AD8B4DAD7030AD8A41200E5D7A2
:100318000001876F2BD084C085F0010E0001866F25
:10032800852B02D0D8908637852FFCD700018651BF
:100338008012120084C085F0010E866F852B02D0D2
:10034800D8908637852FFCD700018651811212007C
:1003580084C085F0010E866F852B02D0D890863731
:10036800852FFCD7000186518212120000018751A7
:10037800000AD8B4D0D7010AD8B4DCD7030AD8A465
:100388001200E6D7000E0001946F000EFEEC01F09B
:10039800FB0E0001866F1F0E876F90EC03F0CBEC0D
:1003A80000F0D7EC03F0250E00018A6F800E896FEC
:1003B8000EEC01F0C7EC04F000019451020DBF0EE1
:1003C800F324F66E1F0EF420F76E0900F5CF92F0B5
:1003D8000A00F5CF93F001D80AD00500FA6E9251C1
:1003E800FD6E9351FE6EF850FF6EFA501200000138
:1003F800946FE2D70001846F14D0700ED3121200EC
:10040800600ED3121200500ED3121200D38C1200B9
:10041800300ED3121200D38A1200D3881200D350A0
:10042800120000018451000AD8B4E7D7010AD8B4F1
:10043800E7D7030AD8B4E7D7010AD8B4E7D7070A39
:10044800D8B4E6D7010AD8B4E6D7030AD8B4E5D7B2
:10045800010AD8A41200E3D7060E196E3550020D12
:10046800F30EF324F66E1F0EF420F76E0900F5CF95
:1004780087F00A00F5CF88F017C084F018C085F01F
:1004880019C086F001D80BD005000001FA6E87511B
:10049800FD6E8851FE6EF850FF6EFA50120084C04F
:1004A80017F085C018F086C019F018C035F019503B
:1004B8001200050E1C6E3650020DD70EF324F66E90
:1004C8001F0EF420F76E0900F5CF87F00A00F5CF6C
:1004D80088F01AC084F01BC085F01CC086F001D8D3
:1004E8000BD005000001FA6E8751FD6E8851FE6E33
:1004F800F850FF6EFA50120084C01AF085C01BF045
:1005080086C01CF01BC036F01C501200030E1F6E74
:100518003850020DDD0EF324F66E1F0EF420F76E30
:100528000900F5CF87F00A00F5CF88F01DC084F0E8
:100538001EC085F01FC086F001D80BD00500000151
:10054800FA6E8751FD6E8851FE6EF850FF6EFA50B4
:10055800120084C01DF085C01EF086C01FF01EC0AA
:1005680038F01F501200020E226E3950020DE30EB1
:10057800F324F66E1F0EF420F76E0900F5CF87F00E
:100588000A00F5CF88F020C084F021C085F022C091
:1005980086F001D80BD005000001FA6E8751FD6E78
:1005A8008851FE6EF850FF6EFA50120084C020F099
:1005B80085C021F086C022F021C039F022501200F7
:1005C800010E256E3A50020DCF0EF324F66E1F0E63
:1005D800F420F76E0900F5CF87F00A00F5CF88F010
:1005E80023C084F024C085F025C086F001D80BD044
:1005F80005000001FA6E8751FD6E8851FE6EF850B5
:10060800FF6EFA50120084C023F085C024F086C023
:1006180025F024C03AF025501200070E166E34500B
:10062800020DEF0EF324F66E1F0EF420F76E09008C
:10063800F5CF87F00A00F5CF88F014C084F015C014
:1006480085F016C086F001D80BD005000001FA6EBF
:100658008751FD6E8851FE6EF850FF6EFA501200F9
:1006680084C014F085C015F086C016F015C034F0AB
:1006780016501200040E316E3750020DF70EF32497
:10068800F66E1F0EF420F76E0900F5CF86F00A000B
:10069800F5CF87F030C084F031C085F001D80BD099
:1006A80005000001FA6E8651FD6E8751FE6EF85006
:1006B800FF6EFA50120084C030F085C031F030C0AF
:1006C80037F031501200000E336E3B50020DE90E28
:1006D800F324F66E1F0EF420F76E0900F5CF90F0A4
:1006E8000A00F5CF91F032C08EF033C08FF001D8F8
:1006F8000BD005000001FA6E9051FD6E9151FE6E0F
:10070800F850FF6EFA5012008EC032F08FC033F0EE
:1007180032C03BF033501200010E00018625886F6D
:10072800000E8721896F88C0F6FF89C0F7FF08008F
:10073800F5CF84F086C0F6FF87C0F7FF0800F550B4
:10074800B6EC03F0020E00018625886F000E8721A3
:10075800896F88C0F6FF89C0F7FF0800F550F5ECEF
:1007680003F012000001856F3F0EC716C00EC616B3
:10077800C78C04D0C6980FD0C6880DD0000185510B
:10078800000AD8B4F7D7010AD8B4F6D704D0C79C62
:100798001200C78C12008451000AD8B4F8D7010A95
:1007A800D8A41200F6D7000E00018D6F000E8C6FD2
:1007B800000E8D6F000E8C6FF80E8C5D010E8D593A
:1007C800D8B009D0000E886F010E29EC04F00001A2
:1007D8008C4B8D2BF1D7000E8A6F000E53EC04F072
:1007E80012000001846F07D0000EC66E0FD0C680BD
:1007F8000DD0C6820BD000018451000AD8B4F4D7BA
:10080800010AD8B4F4D7030AD8B4F3D7949A9488D1
:10081800949EC68A1200000E0001846F000E856F38
:10082800000E866F000E876F875186110DE1DC0E72
:10083800845D050E8559D8B01200010E8427000E7C
:10084800852386238723F0D712000001896F0001D2
:100858008951D8B406D0020E846F010E8CEC01F0D9
:1008680006D0020E0001846F010E4FEC01F000016A
:10087800885164EC04F0120000EE60F0240EEE6A79
:10088800E806FDE100EE01F03B0EEE6AE806FDE148
:100898004E904E92000EF86E0001C6EF01F0000176
:1008A8008B6F00018B518009886F000E29EC04F0D2
:1008B80000018A514009886F000E29EC04F01200EB
:1008C8000001856FC69E85C0C9FFC7A0FED7C6BEFA
:1008D80002D0010E01D0000E0001846F1200010E3B
:1008E8000001646F86C065F063C084F064C085F061
:1008F80065C086F01200020E0001796F86C07AF09A
:1009080078C084F079C085F07AC086F01200010EB4
:1009180000017C6F86C07DF07BC084F07CC085F0D0
:100928007DC086F01200020E0001826F86C083F03F
:1009380081C084F082C085F083C086F01200010E69
:100948000001736F86C074F072C084F073C085F0C4
:1009580074C086F01200020E0001706F86C071F03C
:100968006FC084F070C085F071C086F01200010E6F
:1009780000016A6F86C06BF069C084F06AC085F0B8
:100988006BC086F01200030E0001846F000E856FA5
:10099800020E53EC00F0F292F288F28E120085C03B
:1009A80061F086C062F060C084F061C085F062C00A
:1009B80086F0120085C076F086C077F075C084F0A6
:1009C80076C085F077C086F0120085C07FF086C0BB
:1009D80080F07EC084F07FC085F080C086F0120071
:1009E800010E066E86C007F005C084F006C085F0CB
:1009F80007C086F0120085C009F086C00AF008C05A
:100A080084F009C085F00AC086F01200020E0F6E4D
:100A180086C010F00EC084F00FC085F010C086F0BC
:100A28001200010E126E86C013F011C084F012C0BD
:100A380085F013C086F01200030E0C6E86C00DF010
:100A48000BC084F00CC085F00DC086F0120085C084
:100A58006DF086C06EF06CC084F06DC085F06EC01D
:100A680086F01200D7EC03F0010E2E6E8FC02FF027
:100A78002EC08EF02FC08FF0120085C067F086C0A0
:100A880068F066C084F067C085F068C086F0120020
:100A980084C026F085C027F026C084F027C085F0E2
:100AA8001200010E286E85C029F028C084F029C0E4
:100AB80085F01200020E2C6E8FC02DF02CC08EF027
:100AC8002DC08FF012008EC02AF08FC02BF02AC0E4
:080AD8008EF02BC08FF012001C
:101DDE0000000000000000005F0000000700070088
:101DEE00147F147F14242A7F2A1223130864623668
:101DFE00495522500005030000001C2241000041FD
:101E0E00221C0014083E081408083E080800503032
:101E1E000000080808080800606000002010080490
:101E2E00023E5149453E00427F40004261514946C3
:101E3E002141454B311814127F1027454545393C39
:101E4E004A4949300171090503364949493606495F
:101E5E0049291E00363600000056360000081422AE
:101E6E0041001414141414004122140802015109E3
:101E7E0006324979413E7E1111117E7F494949361C
:101E8E003E414141227F4141221C7F494949417FC8
:101E9E00090909013E4149497A7F0808087F004136
:101EAE007F41002040413F017F081422417F404086
:101EBE0040407F020C027F7F0408107F3E4141416B
:101ECE003E7F090909063E4151215E7F09192946C7
:101EDE00464949493101017F01013F4040403F1FC2
:101EEE002040201F3F4038403F631408146307080A
:101EFE007008076151494543007F414100020408C3
:101F0E0010200041417F0004020102044040404085
:101F1E0040000102040020545454787F4844443851
:101F2E003844444420384444487F385454541808A4
:101F3E007E0901020C5252523E7F0804047800447E
:101F4E007D40002040443D007F1028440000417F2A
:101F5E0040007C041804787C080404783844444417
:101F6E00387C14141408081414187C7C0804040813
:101F7E004854545420043F4440203C4040207C1C94
:101F8E002040201C3C4030403C44281028440C503B
:101F9E0050503C4464544C44000836410000007FCD
:101FAE000000004136080010080810087846414627
:101FBE0078CE06C8056E0514057C06BA04600422A8
:101FCE00062A0A140A400AFE0946095E09560A162E
:101FDE0009FE08BC09E8092E09D2096C0ABC0ACE12
:101FEE000AE608A6097609820AAA0A980A000000DB
:011FFE0000E2
:020000040020DA
:08000000FFFFFFFFFFFFFFFF00
:020000040030CA
:0E000000FFCF0F3F3C9D85FF0FC00FE00F406C
:00000001FF
