:0400000018EF02F003
:050300000000000000F8
:10030600016E14D0700ED3121200600ED3121200BA
:10031600500ED3121200D38C1200300ED3121200DC
:10032600D38A1200D3881200D35012000150000A5B
:10033600D8B4E8D7010AD8B4E8D7030AD8B4E8D7BE
:10034600010AD8B4E8D7070AD8B4E7D7010AD8B45F
:10035600E7D7030AD8B4E6D7010AD8A41200E4D72F
:10036600010E0324056E000E0420066E05C0F6FF7E
:1003760006C0F7FF0800F5CF01F003C0F6FF04C082
:10038600F7FF0800F550D7EC01F0020E0324056EC6
:10039600000E0420066E05C0F6FF06C0F7FF080033
:1003A600F550F6EC01F01200026E3F0EC716C00EB5
:1003B600C616C78C04D0C6980ED0C6880CD002507C
:1003C600000AD8B4F8D7010AD8B4F7D704D0C79C26
:1003D6001200C78C12000150000AD8B4F8D7010ADF
:1003E600D8A41200F6D7016E07D0000EC66E0ED046
:1003F600C6800CD0C6820AD00150000AD8B4F5D700
:10040600010AD8B4F5D7030AD8B4F4D7949A9488D5
:10041600949EC68A1200000E83EC01F0010E036E54
:10042600030E046EB3EC01F0FFD70A6A096A086A84
:0C043600076A000EF86E00010EEF02F0E5
:020000040020DA
:08000000FFFFFFFFFFFFFFFF00
:020000040030CA
:0E000000FFCF0F3F3C9D85FF0FC00FE00F406C
:00000001FF
