:0400000019EF05F0FF
:1009A400566E56C0C9FF9EA6FED79E961200586E7C
:1009B4005850D8B402D0818401D08194819057508A
:1009C400D2EC04F0818012005A6E5A508009576E9E
:1009D400000ED9EC04F059504009576E000ED9ECC2
:1009E40004F01200000E5D6EFB0E586E1F0E596E61
:1009F4009CEC05F02BEC06F061EC05F030EC05F016
:100A0400FFD7566E07D0000EC66E0ED0C6800CD02F
:100A1400C6820AD05650000AD8B4F5D7010AD8B411
:100A2400F5D7030AD8B4F4D7C68A9E96120001EE0D
:100A340000F02C0EEE6AE806FDE100EE60F0900E88
:100A4400EE6AE806FDE100EE01F0550EEE6AE806F6
:100A5400FDE1000EF86E0001F4EF04F0030E566E93
:100A6400000E576E000E6BEC06F0B896040E566E30
:100A7400000E576E000E6BEC06F0B898030E566E1F
:100A8400000E576E020E6BEC06F01200000E566E4E
:100A9400000E576E000E586E000E596E59505810C5
:100AA4000DE1C40E565C090E5758D8B01200010E61
:100AB4005626000E572258225922F0D71200000E53
:100AC4005C6E000E5B6E000E5C6E000E5B6EF80ECC
:100AD4005B5C010E5C58D8B008D0000E576E010E56
:100AE400D9EC04F05B4A5C2AF2D7000E596E000E72
:100AF400E6EC04F01200576E949A9488949EC78C86
:100B0400C79004D0C6980ED0C6880CD05750000A9F
:100B1400D8B4F8D7010AD8B4F7D704D0C79C1200C8
:100B2400C78C12005650000AD8B4F8D7010AD8A4CA
:100B34001200F6D7010E58245A6E000E59205B6E2F
:100B44005AC0F6FF5BC0F7FF0800F5CF56F058C057
:100B5400F6FF59C0F7FF0800F5507DEC05F0020ED2
:100B640058245A6E000E59205B6E5AC0F6FF5BC0C3
:100B7400F7FF0800F55003EC05F01200596E27D07A
:100B840056C057F0010E586E572A02D0D8905836E6
:100B9400572EFCD758508012120056C057F0010E41
:100BA400586E572A02D0D8905836572EFCD7585032
:100BB4008112120056C057F0010E586E572A02D007
:100BC400D8905836572EFCD75850821212005950DC
:100BD400000AD8B4D5D7010AD8B4DFD7030AD8A4F9
:100BE4001200E8D7596E2AD056C057F0010E586E3D
:100BF400572A02D0D8905836572EFCD75850FF0A9F
:100C04008016120056C057F0010E586E572A02D0B3
:100C1400D8905836572EFCD75850FF0A8116120028
:100C240056C057F0010E586E572A02D0D890583645
:100C3400572EFCD75850FF0A821612005950000A4A
:100C4400D8B4D2D7010AD8B4DDD7030AD8A4120085
:100C5400E7D7020E566E010E576E010E6BEC06F0CE
:100C6400010E566E010E576E010E6BEC06F0000E6F
:100C7400566E010E576E010E6BEC06F0010E566EA9
:100C8400010EF4EC05F048EC05F0010E566E010E71
:100C9400C0EC05F0210E576E000ED9EC04F0BF0E27
:100CA400576E000ED9EC04F0040E576E000ED9EC0A
:100CB40004F0140E576E000ED9EC04F0200E576E9B
:100CC400000ED9EC04F00C0E576E000ED9EC04F0B3
:100CD40012005A6E64D056C058F0010E596E582A4C
:100CE40002D0D8905936582EFCD75950921212007F
:100CF40056C058F0010E596E582A02D0D890593671
:100D0400582EFCD759509312120056C058F0010EB9
:100D1400596E582A02D0D8905936582EFCD75950BB
:100D2400941212005A50000AD8B4D5D7010AD8B484
:100D3400DFD7030AD8A41200E8D756C058F0000E33
:100D4400596E582A02D0D8905936582EFCD759508B
:100D54009216120056C058F0000E596E582A02D04E
:100D6400D8905936582EFCD759509316120056C0B5
:100D740058F0000E596E582A02D0D8905936582E81
:100D8400FCD75950941612005A50000AD8B4D5D73B
:100D9400010AD8B4DFD7030AD8A41200E8D7575001
:100DA400000AD8B4BFD7010AD8A41200EDD70000B6
:100DB4000000000000005F00000007000700147F2F
:100DC400147F14242A7F2A12231308646236495597
:100DD40022500005030000001C2241000041221C97
:100DE4000014083E081408083E08080050300000AB
:100DF4000808080808006060000020100804023E8B
:100E04005149453E00427F400042615149462141DB
:100E1400454B311814127F1027454545393C4A4942
:100E240049300171090503364949493606494929BA
:100E34001E00363600000056360000081422410019
:100E44001414141414004122140802015109063226
:100E54004979413E7E1111117E7F494949363E410F
:100E64004141227F4141221C7F494949417F09096F
:100E740009013E4149497A7F0808087F00417F41C2
:100E8400002040413F017F081422417F4040404000
:100E94007F020C027F7F0408107F3E4141413E7F68
:100EA400090909063E4151215E7F0919294646492F
:100EB40049493101017F01013F4040403F1F20402B
:100EC400201F3F4038403F6314081463070870082C
:100ED400076151494543007F414100020408102045
:100EE4000041417F000402010204404040404000B0
:100EF4000102040020545454787F48444438384450
:100F0400444420384444487F3854545418087E09D3
:100F140001020C5252523E7F0804047800447D4082
:100F2400002040443D007F1028440000417F4000E1
:100F34007C041804787C0804047838444444387CDD
:100F440014141408081414187C7C08040408485465
:100F5400545420043F4440203C4040207C1C20400A
:100F6400201C3C4030403C44281028440C50505035
:100F74003C4464544C44000836410000007F0000A7
:100F84000041360800100808100878464146785099
:100F940068617365204320526576657273652041EC
:100FA40063746976652046756E64616D656E7461FF
:100FB4006C20456E65726779203D20090050686198
:100FC40073652042205265766572736520416374AF
:100FD4006976652046756E64616D656E74616C201A
:100FE400456E65726779203D20090050686173651C
:100FF4002041205265766572736520416374697679
:10100400652046756E64616D656E74616C20456E15
:1010140065726779203D200900506861736520433B
:1010240020466F727761726420416374697665202B
:1010340046756E64616D656E74616C20456E657293
:101044006779203D2009005068617365204220467D
:101054006F727761726420416374697665204675A6
:101064006E64616D656E74616C20456E657267793E
:10107400203D2009005068617365204120466F724D
:1010840077617264204163746976652046756E6485
:10109400616D656E74616C20456E65726779203D83
:1010A400200900546F74616C205265766572736513
:1010B400204163746976652046756E64616D656E62
:1010C40074616C20456E65726779203D2009005477
:1010D4006F74616C20466F7277617264204163742F
:1010E4006976652046756E64616D656E74616C2009
:1010F400456E65726779203D2009005448442B4EA3
:101104002F4672657175656E63792F416E676C65E4
:101114002F54656D706572617475726520524D53FC
:10112400203D200D0A0050686173652043205265FC
:1011340076657273652041637469766520486172CF
:101144006D6F6E696320456E65726779203D200975
:10115400005068617365204220526576657273653C
:1011640020416374697665204861726D6F6E6963AE
:1011740020456E65726779203D20090050686173CF
:1011840065204120526576657273652041637469F8
:101194007665204861726D6F6E696320456E657275
:1011A4006779203D2009005068617365204320461B
:1011B4006F72776172642041637469766520486157
:1011C400726D6F6E696320456E65726779203D208C
:1011D40009005068617365204220466F727761721E
:1011E4006420416374697665204861726D6F6E692D
:1011F4006320456E65726779203D2009005068615F
:101204007365204120466F72776172642041637474
:10121400697665204861726D6F6E696320456E65FD
:10122400726779203D200900546F74616C20526507
:1012340076657273652041637469766520486172CE
:101244006D6F6E696320456E65726779203D200974
:1012540000546F74616C20466F7277617264204130
:101264006374697665204861726D6F6E69632045A9
:101274006E65726779203D200900506861736520AE
:1012840043204163746976652046756E64616D65BB
:101294006E74616C20506F776572203D2009005098
:1012A40068617365204220416374697665204675E0
:1012B4006E64616D656E74616C20506F7765722029
:1012C4003D200900506861736520412041637469C1
:1012D40076652046756E64616D656E74616C205030
:1012E4006F776572203D200900546F74616C204152
:1012F4007269746D65746963204170706172656EA2
:101304007420456E65726779203D2009005068613C
:10131400736520422052657665727365205265615B
:10132400637469766520456E65726779203D20098E
:10133400005068617365204120526576657273655B
:1013440020526561637469766520456E65726779BC
:10135400203D2009005068617365204320466F7268
:101364007761726420526561637469766520456EA5
:1013740065726779203D20090050686173652042D9
:1013840020466F7277617264205265616374697676
:101394006520456E65726779203D200900506861BB
:1013A4007365204120466F727761726420526561D3
:1013B400637469766520456E65726779203D2009FE
:1013C40000546F74616C20416374697665204675BE
:1013D4006E64616D656E74616C20506F7765722008
:1013E4003D2009005068617365204320526576658D
:1013F400727365526561637469766520456E6572C2
:101404006779203D2009004E204C696E65204361B8
:101414006C63756C617465642043757272656E7477
:1014240020524D53203D20090050686173652043CC
:1014340020416374697665204861726D6F6E6963DB
:1014440020506F776572203D2009005068617365F4
:10145400204220416374697665204861726D6F6E25
:10146400696320506F776572203D200900506861E0
:101474007365204120416374697665204861726D0B
:101484006F6E696320506F776572203D20090054A8
:101494006F74616C20526576657273652052656164
:1014A400637469766520456E65726779203D20090D
:1014B40000546F74616C20466F72776172642052BD
:1014C4006561637469766520456E65726779203D50
:1014D4002009005068617365204320526576657267
:1014E40073652041637469766520456E657267791A
:1014F400203D2009005068617365204220526576C2
:10150400657273652041637469766520456E657202
:101514006779203D2009005068617365204120529D
:101524006576657273652041637469766520456EDE
:1015340065726779203D2009005068617365204316
:1015440020466F7277617264204163746976652006
:10155400456E65726779203D2009005068617365A6
:10156400204220466F727761726420416374697609
:101574006520456E65726779203D200900506861D9
:101584007365204120466F727761726420416374F1
:1015940069766520456E65726779203D20090041B2
:1015A40063746976652F52656163746976652F414A
:1015B40070706172656E7420456E657267790D0A8C
:1015C40000546F74616C20566563746F72204170AF
:1015D400706172656E7420456E65726779203D2076
:1015E40009005068617365204320566F6C7461670D
:1015F4006520506861736520416E676C65203D20ED
:1016040009005068617365204220566F6C746167ED
:101614006520506861736520416E676C65203D20CC
:1016240009005068617365204120566F6C746167CE
:101634006520506861736520416E676C65203D20AC
:101644000900546F74616C204163746976652048A5
:1016540061726D6F6E696320506F776572203D20F3
:10166400090046756E64616D656E74616C2F486126
:10167400726D6F6E696320506F776572203D200D27
:101684000A00546F74616C2052657665727365202C
:1016940041637469766520456E65726779203D20E3
:1016A4000900546F74616C20466F72776172642014
:1016B40041637469766520456E65726779203D20C3
:1016C40009004E204C696E652053616D706C656431
:1016D4002043757272656E7420524D53203D20096B
:1016E40000546F74616C20466163746F7220506F94
:1016F40077657220466163746F72203D200900464D
:10170400756E64616D656E74616C2F4861726D6F86
:101714006E696320456E657267790D0900506861D2
:1017240073652043206D65616E2070686173652068
:10173400616E676C65203D20090050686173652007
:1017440042206D65616E20706861736520616E670B
:101754006C65203D20090050686173652041206D4F
:1017640065616E20706861736520616E676C6520C9
:101774003D200900506F77657220616E6420506FC0
:1017840077657220466163746F72203D200D0900F5
:1017940050686173652043204170706172656E7496
:1017A40020456E65726779203D2009005068617399
:1017B400652042204170706172656E7420456E65CB
:1017C400726779203D2009005068617365204120CB
:1017D4004170706172656E7420456E657267792020
:1017E4003D20090050686173652043204170706199
:1017F40072656E7420506F776572203D2009005029
:10180400686173652042204170706172656E742056
:10181400506F776572203D20090050686173652020
:1018240041204170706172656E7420506F776572EB
:10183400203D200900506861736520432052656192
:10184400637469766520506F776572203D200900C6
:1018540050686173652042205265616374697665DE
:1018640020506F776572203D2009005068617365D0
:10187400204120526561637469766520506F7765F5
:1018840072203D2009005068617365204320437530
:101894007272656E74205448442B4E203D2009001A
:1018A400506861736520422043757272656E7420BE
:1018B4005448442B4E203D20090050686173652034
:1018C400412043757272656E74205448442B4E2037
:1018D4003D2009005068617365204320566F6C7485
:1018E400616765205448442B4E203D200900506810
:1018F400617365204220566F6C746167652054489B
:10190400442B4E203D20090050686173652041201E
:10191400566F6C74616765205448442B4E203D20FB
:101924000900566F6C746167652F43757272656E3A
:101934007420524D53203D200D0A00506861736598
:10194400204320506F77657220466163746F722064
:101954003D2009005068617365204220506F77650F
:101964007220466163746F72203D200900506861E3
:101974007365204120506F77657220466163746FF0
:1019840072203D200900546F74616C2041707061B5
:1019940072656E7420506F776572203D2009005483
:1019A4006F74616C20526561637469766520506F51
:1019B400776572203D2009005068617365204320DB
:1019C40041637469766520506F776572203D200904
:1019D4000050686173652042204163746976652014
:1019E400506F776572203D2009005068617365204F
:1019F400412041637469766520506F776572203D9C
:101A04002009005068617365204320437572726534
:101A14006E7420524D53203D200900506861736557
:101A240020422043757272656E7420524D53203DDE
:101A34002009005068617365204120437572726506
:101A44006E7420524D53203D200900506861736527
:101A5400204320566F6C7461676520524D53203DBE
:101A64002009005068617365204220566F6C7461D0
:101A7400676520524D53203D20090050686173650D
:101A8400204120566F6C7461676520524D53203D90
:101A9400200900546F74616C204163746976652079
:101AA400506F776572203D200900546F74616C207B
:101AB400466F727746756E6420453A2000546F7401
:101AC400616C20466F72772052656163743A20001E
:101AD400546F74616C2052657646756E6420453A85
:101AE4002000546F74616C2056656341707020450A
:101AF4006E3A2000546F74616C20417269417070B9
:101B040020456E3A2000546F74616C205265762033
:101B140052656163743A2000000000000000000078
:101B240000000000000000000000546F74616C208D
:101B3400466F7277204163743A2000504320466F09
:101B4400727746756E6420453A2000504220466FF5
:101B5400727746756E6420453A2000504120466FE6
:101B6400727746756E6420453A2000504320466FD4
:101B740072772052656163743A2000504120466FA9
:101B840072772052656163743A2000546F74616CFB
:101B940020526576204163743A200054656D706567
:101BA400726174757265203D200900566F6C746112
:101BB40067652043757272656E740041637469765B
:101BC4006520526561637469766500546F74616C55
:101BD40020466F727748453A20005043205265767C
:101BE40046756E6420453A20005042205265764680
:101BF400756E6420453A2000504120526576467542
:101C04006E6420453A200050432052657620526588
:101C14006163743A20005042205265762052656117
:101C240063743A2000504120526576205265616306
:101C3400743A2000504220466F72772052656163E7
:101C44003A20004170706172656E7420506F776540
:101C54007200546F74616C204150506F773A2000C9
:101C6400546F74616C2052657648453A20005043A5
:101C740020466F7277204163743A20005042204618
:101C84006F7277204163743A2000504120466F728E
:101C940077204163743A20004672657175656E63FE
:101CA40079203D2009004D4541535552454D454E3F
:101CB400540D0A0054485245452050484153450D9F
:101CC4000A00546F74616C2048506F773A200054B6
:101CD4006F74616C2046506F773A2000546F7461C2
:101CE4006C2052506F773A2000546F74616C20411D
:101CF400506F773A20005043205265762041637438
:101D04003A2000504220526576204163743A200004
:101D1400504120526576204163743A20004E20538E
:101D2400616D43524D533A20004E2043616C43523F
:101D34004D533A2000504320466F727748453A206D
:101D440000504220466F727748453A2000504120A7
:101D5400466F727748453A200054656D706572612C
:101D6400747572650046756E64616D656E74616C40
:101D7400004D6561737572656D656E7400546872AB
:101D84006565205068617365000000000000000074
:101D94000000000000504320635448444E3A2000A1
:101DA400504220635448444E3A200050412063542A
:101DB40048444E3A2000504320765448444E3A203A
:101DC40000504220765448444E3A20005041207638
:101DD4005448444E3A2000546F74616C2050463A83
:101DE40020005043204150506F773A200050422049
:101DF4004150506F773A20005041204150506F7746
:101E04003A200050432052657648453A200050421B
:101E14002052657648453A20005041205265764864
:101E2400453A2000504320567068413A2000504201
:101E340020567068413A2000504120567068413A5B
:101E4400200050432043524D533A20005042204337
:101E5400524D533A200050412043524D533A2000F2
:101E640050432056524D533A200050422056524D72
:101E7400533A200050412056524D533A20005043CB
:101E84002048506F773A200050422048506F773AEC
:101E9400200050412048506F773A2000504320469C
:101EA400506F773A200050422046506F773A200016
:101EB40050412046506F773A200050432052506FD3
:101EC400773A200050422052506F773A2000504118
:101ED4002052506F773A200050432041506F773A98
:101EE400200050422041506F773A20005041204159
:101EF400506F773A20004672657175656E6379009C
:101F04005043207068413A20005042207068413AA2
:101F140020005041207068413A2000504320417015
:101F2400703A20005042204170703A200050412005
:101F34004170703A20004861726D6F6E69630050A1
:101F4400432050463A200050422050463A20005048
:101F5400412050463A20000000000000000000002C
:101F64000000000000000054656D703A20004672C5
:101F740065713A2000466163746F7200456E657244
:101F84006779000920410D0A000920560D0A00094D
:101F9400204A0D0A000920570D0A00416E676C653E
:101FA40000506861736500506F77657200506F77F9
:101FB4006572000000000000000000000000000046
:101FC40000000000000920470A000920480A00090F
:101FD40020430A004D656E750053656E6400524DD2
:101FE40053000000000000000000000000004C004E
:0B1FF400450052000100020100020045
:020000040020DA
:08000000FFFFFFFFFFFFFFFF00
:020000040030CA
:0E000000FFC20F3E3C1D81FF0FC00FE00F40FE
:00000001FF
