:0400000051EF00F0CC
:100008004D82FACF33F0FBCF34F0E9CF35F0EACFA9
:1000180036F0E1CF37F0E2CF38F0D9CF39F0DACF88
:100028003AF0F3CF3BF0F4CF3CF0F6CF3DF0F7CF0A
:100038003EF0F8CF3FF0F5CF40F04DC041F04EC054
:1000480042F04FC043F050C044F0F2B2F29244C0C4
:1000580050F043C04FF042C04EF041C04DF040C098
:10006800F5FF3FC0F8FF3EC0F7FF3DC0F6FF3CC0BC
:10007800F4FF3BC0F3FF3AC0DAFF39C0D9FF38C0FC
:10008800E2FF37C0E1FF36C0EAFF35C0E9FF34C000
:10009800FBFF33C0FAFF4D921100F2EF01F0496EF9
:1000A80064D045C047F0010E486E472A02D0D89068
:1000B8004836472EFCD748509212120045C047F0E8
:1000C800010E486E472A02D0D8904836472EFCD7F2
:1000D80048509312120045C047F0010E486E472A57
:1000E80002D0D8904836472EFCD7485094121200B8
:1000F8004950000AD8B4D5D7010AD8B4DFD7030AC3
:10010800D8A41200E8D745C047F0000E486E472A29
:1001180002D0D8904836472EFCD748509216120085
:1001280045C047F0000E486E472A02D0D89048369E
:10013800472EFCD748509316120045C047F0000ED2
:10014800486E472A02D0D8904836472EFCD74850E8
:10015800941612004950000AD8B4D5D7010AD8B469
:10016800DFD7030AD8A41200E8D74650000AD8B44B
:10017800BFD7010AD8A41200EDD700018F6F000E77
:100188000001916F000E906F000E4B6E010EAAECED
:1001980002F0000E0001916F000E906F91512BE15B
:1001A800050E905DD8B027D0E00E8F25456E466AC3
:1001B800FF0E4622000E486E050E476E97EC02F0C1
:1001C800DF0E00018D6F1D0E8E6F45508D27465036
:1001D8008E2390518D2791518E238DC0F6FF8EC0AE
:1001E800F7FF0800F5CF4BF0010EAAEC02F0000172
:1001F800904B912BD3D7000E4B6E010EAAEC02F058
:100208001200020E456E010E466E010E53EC00F010
:10021800010E456E010E466E010E53EC00F0010E04
:10022800456E010E3EEC01F052EC02F0010E456EF7
:10023800010E75EC01F0210E4B6E000EAAEC02F0D7
:10024800B80E4B6E000EAAEC02F0040E4B6E000EB8
:10025800AAEC02F0140E4B6E000EAAEC02F0200E6F
:100268004B6E000EAAEC02F00C0E4B6E000EAAECC0
:1002780002F01200486E2AD045C046F0010E476EC3
:10028800462A02D0D8904736462EFCD74750FF0A58
:100298008016120045C046F0010E476E462A02D06D
:1002A800D8904736462EFCD74750FF0A81161200D1
:1002B80045C046F0010E476E462A02D0D890473610
:1002C800462EFCD74750FF0A821612004850000AF3
:1002D800D8B4D2D7010AD8B4DDD7030AD8A41200FB
:1002E800E7D7486E27D045C046F0010E476E462A2C
:1002F80002D0D8904736462EFCD7475080121200BD
:1003080045C046F0010E476E462A02D0D8904736BF
:10031800462EFCD747508112120045C046F0010E08
:10032800476E462A02D0D8904736462EFCD747500B
:10033800821212004850000AD8B4D5D7010AD8B49E
:10034800DFD7030AD8A41200E8D7FB0E476E1F0EAA
:10035800486ECEEC01F005EC01F034EC02F0410EF1
:1003680000019E6F20EE9FF010EE92F00B0EDBCF97
:10037800E3FFE806FCE200019E51C1EC00F0640EC8
:10038800456E190E466E000E476E000E486E83ECE1
:1003980002F0F1D7010E4724496E000E48204A6E3C
:1003A80049C0F6FF4AC0F7FF0800F5CF45F047C03F
:1003B800F6FF48C0F7FF0800F55015EC02F0020EF2
:1003C8004724496E000E48204A6E49C0F6FF4AC0CD
:1003D800F7FF0800F5506BEC02F01200B60EF66E4F
:1003E800050EF76E000EF86E00EE9FF010EE0CF0A2
:1003F8000900F5CFEEFFE550E150FAE100EE60F0BC
:100408002D0EEE6AE806FDE100EE01F0320EEE6A0E
:10041800E806FDE14D904D92000EF86E0001A9EF3F
:1004280001F0466E3F0EC716C00EC616C78C04D024
:10043800C6980ED0C6880CD04650000AD8B4F8D753
:10044800010AD8B4F7D704D0C79C1200C78C120091
:100458004550000AD8B4F8D7010AD8A41200F6D734
:10046800000E0001906F000E8F6F000E906F000E4F
:100478008F6FF80E8F5D010E9059D8B009D0000E1D
:100488004B6E010EAAEC02F000018F4B902BF1D7B6
:10049800000E8D6F000EBDEC02F01200000E456ECE
:1004A800000E466E000E476E000E486E485047100C
:1004B8000DE1DC0E455C050E4658D8B01200010E61
:1004C8004526000E462247224822F0D71200456EE4
:1004D80007D0000EC66E0ED0C6800CD0C6820AD0D9
:1004E8004550000AD8B4F5D7010AD8B4F5D7030A9D
:1004F800D8B4F4D7949A9488949EC68A120045C0BA
:1005080049F046C04AF047C04BF048C04CF049504B
:100518004A104B104C10D8B412004906000E4A5A23
:100528004B5A4C5AF4D745504702F3CF49F0F4CF11
:100538004AF045504802F3504A2646504702F350C5
:100548004A2649C045F04AC046F012004C6E4C504D
:10055800D8B406D0020E456E010E75EC01F005D038
:10056800020E456E010E3EEC01F04B50CEEC02F04F
:10057800120000018E6F00018E5180094B6E000E33
:10058800AAEC02F000018D5140094B6E000EAAEC56
:1005980002F01200466EC69E46C0C9FFC7A0FED72D
:1005A800C6BE02D0010E01D0000E456E1200486F83
:0A05B8006C61204D756E646F0D003C
:101DDE0000000000000000005F0000000700070088
:101DEE00147F147F14242A7F2A1223130864623668
:101DFE00495522500005030000001C2241000041FD
:101E0E00221C0014083E081408083E080800503032
:101E1E000000080808080800606000002010080490
:101E2E00023E5149453E00427F40004261514946C3
:101E3E002141454B311814127F1027454545393C39
:101E4E004A4949300171090503364949493606495F
:101E5E0049291E00363600000056360000081422AE
:101E6E0041001414141414004122140802015109E3
:101E7E0006324979413E7E1111117E7F494949361C
:101E8E003E414141227F4141221C7F494949417FC8
:101E9E00090909013E4149497A7F0808087F004136
:101EAE007F41002040413F017F081422417F404086
:101EBE0040407F020C027F7F0408107F3E4141416B
:101ECE003E7F090909063E4151215E7F09192946C7
:101EDE00464949493101017F01013F4040403F1FC2
:101EEE002040201F3F4038403F631408146307080A
:101EFE007008076151494543007F414100020408C3
:101F0E0010200041417F0004020102044040404085
:101F1E0040000102040020545454787F4844443851
:101F2E003844444420384444487F385454541808A4
:101F3E007E0901020C5252523E7F0804047800447E
:101F4E007D40002040443D007F1028440000417F2A
:101F5E0040007C041804787C080404783844444417
:101F6E00387C14141408081414187C7C0804040813
:101F7E004854545420043F4440203C4040207C1C94
:101F8E002040201C3C4030403C44281028440C503B
:101F9E0050503C4464544C44000836410000007FCD
:101FAE000000004136080010080810087846414627
:101FBE00780000000000000000000000000000009B
:101FCE000000000000000000000000000000000003
:101FDE0000000000000000000000000000000000F3
:101FEE0000000000000000000000000000000000E3
:011FFE0000E2
:020000040020DA
:08000000FFFFFFFFFFFFFFFF00
:020000040030CA
:0E000000FFC80F3E3C1D81FF0FC00FE00F40F8
:00000001FF
