:04000000E7EF01F035
:050300000000000000F8
:10030600010E0324056E000E0420066E05C0F6FFDE
:1003160006C0F7FF0800F5CF01F003C0F6FF04C0E2
:10032600F7FF0800F550A7EC01F0020E0324056E56
:10033600000E0420066E05C0F6FF06C0F7FF080093
:10034600F550C6EC01F01200026E3F0EC716C00E45
:10035600C616C78C04D0C6980ED0C6880CD00250DC
:10036600000AD8B4F8D7010AD8B4F7D704D0C79C86
:100376001200C78C12000150000AD8B4F8D7010A3F
:10038600D8A41200F6D7016E07D0000EC66E0ED0A6
:10039600C6800CD0C6820AD00150000AD8B4F5D760
:1003A600010AD8B4F5D7030AD8B4F4D7949A948836
:1003B600949E949CC68A828C1200010E036E030ED4
:1003C600046E83EC01F0FFD7000EF86E0001E0EF3B
:0203D60001F034
:020000040020DA
:08000000FFFFFFFFFFFFFFFF00
:020000040030CA
:0E000000FFCF0F3F3C9D85FF0FC00FE00F406C
:00000001FF
